{
  "transactions": [
    {
      "hash": "0x06ac5b08faaee8ac8db06547246cde9664e1fb27a6f9a69a5d9fcb21d805dc78",
      "transactionType": "CREATE",
      "contractName": "Oracle",
      "contractAddress": "0xcd2ee76126cae7279e5f3916faf5a6b649250667",
      "function": null,
      "arguments": [
        "0x2e17Acf054bDB44679A9bc98Fff6280d458DAFcA"
      ],
      "transaction": {
        "from": "0x7f50cf0163b3a518d01fe480a51e7658d1ebef87",
        "gas": "0x4fa34",
        "value": "0x0",
        "input": "0x6080604052348015600e575f80fd5b506040516103a83803806103a8833981016040819052602b91604f565b600180546001600160a01b0319166001600160a01b0392909216919091179055607a565b5f60208284031215605e575f80fd5b81516001600160a01b03811681146073575f80fd5b9392505050565b610321806100875f395ff3fe608060405234801561000f575f80fd5b506004361061004a575f3560e01c8063502f5bd01461004e578063a035b1fe14610067578063d92807a214610082578063dd1a5387146100ad575b5f80fd5b61006561005c3660046101d0565b50505050505050565b005b61006f5f5481565b6040519081526020015b60405180910390f35b600154610095906001600160a01b031681565b6040516001600160a01b039091168152602001610079565b6100656100bb3660046101d0565b6001546001600160a01b031633146100e6576040516352c8b88360e11b815260040160405180910390fd5b6100f36020880188610291565b81019061010091906102d4565b5f9081556040517f715f134613c3a182b8c06761ddc789820d2471806373c0386948d85956d8b6ed9190a150505050505050565b5f8083601f840112610144575f80fd5b50813567ffffffffffffffff81111561015b575f80fd5b602083019150836020828501011115610172575f80fd5b9250929050565b8060408101831015610189575f80fd5b92915050565b5f8083601f84011261019f575f80fd5b50813567ffffffffffffffff8111156101b6575f80fd5b6020830191508360208260051b8501011115610172575f80fd5b5f805f805f805f60c0888a0312156101e6575f80fd5b873567ffffffffffffffff808211156101fd575f80fd5b908901906080828c031215610210575f80fd5b9097506020890135908115158214610226575f80fd5b9096506040890135908082111561023b575f80fd5b6102478b838c01610134565b909750955085915061025c8b60608c01610179565b945060a08a0135915080821115610271575f80fd5b5061027e8a828b0161018f565b989b979a50959850939692959293505050565b5f808335601e198436030181126102a6575f80fd5b83018035915067ffffffffffffffff8211156102c0575f80fd5b602001915036819003821315610172575f80fd5b5f602082840312156102e4575f80fd5b503591905056fea26469706673582212206c929fc0d6fcc52e85da4f78d4e2f0aa69969c5ee06292c09f2f83a3b3e2ec3c64736f6c634300081900330000000000000000000000002e17acf054bdb44679a9bc98fff6280d458dafca",
        "nonce": "0x1bf",
        "chainId": "0x3419"
      },
      "additionalContracts": [],
      "isFixedGasLimit": false
    },
    {
      "hash": "0xaff7829d498420d08c5716820daed33f28aa1d6d7b6cec6429c8a0d889c7ea59",
      "transactionType": "CALL",
      "contractName": null,
      "contractAddress": "0x2e17acf054bdb44679a9bc98fff6280d458dafca",
      "function": "setAvsLogic(address)",
      "arguments": [
        "0xCD2eE76126Cae7279e5f3916Faf5a6B649250667"
      ],
      "transaction": {
        "from": "0x7f50cf0163b3a518d01fe480a51e7658d1ebef87",
        "to": "0x2e17acf054bdb44679a9bc98fff6280d458dafca",
        "gas": "0xe8ae",
        "value": "0x0",
        "input": "0x008fd386000000000000000000000000cd2ee76126cae7279e5f3916faf5a6b649250667",
        "nonce": "0x1c0",
        "chainId": "0x3419"
      },
      "additionalContracts": [],
      "isFixedGasLimit": false
    }
  ],
  "receipts": [
    {
      "status": "0x1",
      "cumulativeGasUsed": "0x3d428",
      "logs": [],
      "logsBloom": "0x00000000000000000000000000000000000000000000000000000000000000000000000000000000000000000000000000000000000000000000000000000000000000000000000000000000000000000000000000000000000000000000000000000000000000000000000000000000000000000000000000000000000000000000000000000000000000000000000000000000000000000000000000000000000000000000000000000000000000000000000000000000000000000000000000000000000000000000000000000000000000000000000000000000000000000000000000000000000000000000000000000000000000000000000000000000",
      "type": "0x2",
      "transactionHash": "0x06ac5b08faaee8ac8db06547246cde9664e1fb27a6f9a69a5d9fcb21d805dc78",
      "transactionIndex": "0x0",
      "blockHash": "0x891c6f6e7e6cb69c717a6507614c7dd7c7d31d5b0eb4352cba1473222b1ddd7c",
      "blockNumber": "0x112748",
      "gasUsed": "0x3d428",
      "effectiveGasPrice": "0xe8d4a51001",
      "from": "0x7f50cf0163b3a518d01fe480a51e7658d1ebef87",
      "to": null,
      "contractAddress": "0xcd2ee76126cae7279e5f3916faf5a6b649250667"
    },
    {
      "status": "0x1",
      "cumulativeGasUsed": "0x47341",
      "logs": [
        {
          "address": "0x2e17acf054bdb44679a9bc98fff6280d458dafca",
          "topics": [
            "0xdf0d3b0bf99a87fc195d045bc7ec61d3e2619e6a49dd3f5cb69102b8c9702034"
          ],
          "data": "0x000000000000000000000000cd2ee76126cae7279e5f3916faf5a6b649250667",
          "blockHash": "0x891c6f6e7e6cb69c717a6507614c7dd7c7d31d5b0eb4352cba1473222b1ddd7c",
          "blockNumber": "0x112748",
          "transactionHash": "0xaff7829d498420d08c5716820daed33f28aa1d6d7b6cec6429c8a0d889c7ea59",
          "transactionIndex": "0x1",
          "logIndex": "0x0",
          "removed": false
        }
      ],
      "logsBloom": "0x04000000000000000000000000000000000000000000000000000000000000000000000000000000000000000000000000000000000000000000000000000000000000000800000000000000000000000000800000000000000000000000000000000000000000000000000000000000000000000000000000000000000000000000000000000000000000000010000000000000000000000000000000000000000000000000000000000000000000000000000000000000000000000000000000000000000000000000000000000000000000000000000000000000000000000000000040000000000000000000000000000000000000000000000000100000",
      "type": "0x2",
      "transactionHash": "0xaff7829d498420d08c5716820daed33f28aa1d6d7b6cec6429c8a0d889c7ea59",
      "transactionIndex": "0x1",
      "blockHash": "0x891c6f6e7e6cb69c717a6507614c7dd7c7d31d5b0eb4352cba1473222b1ddd7c",
      "blockNumber": "0x112748",
      "gasUsed": "0x9f19",
      "effectiveGasPrice": "0xe8d4a51001",
      "from": "0x7f50cf0163b3a518d01fe480a51e7658d1ebef87",
      "to": "0x2e17acf054bdb44679a9bc98fff6280d458dafca",
      "contractAddress": null
    }
  ],
  "libraries": [],
  "pending": [],
  "returns": {},
  "timestamp": 1737028408,
  "chain": 13337,
  "commit": "8f8bc56"
}