{
  "transactions": [
    {
      "hash": "0x2735e1c72d6e26be518ac9b949694c3b723179416ad062139c4641e9cfbf0f1b",
      "transactionType": "CREATE",
      "contractName": "Oracle",
      "contractAddress": "0x83a891afd0d4c6e3a57a47724984cef15f1205f7",
      "function": null,
      "arguments": [
        "0x2e17Acf054bDB44679A9bc98Fff6280d458DAFcA"
      ],
      "transaction": {
        "from": "0x7f50cf0163b3a518d01fe480a51e7658d1ebef87",
        "gas": "0x4fa34",
        "value": "0x0",
        "input": "0x6080604052348015600e575f80fd5b506040516103a83803806103a8833981016040819052602b91604f565b600180546001600160a01b0319166001600160a01b0392909216919091179055607a565b5f60208284031215605e575f80fd5b81516001600160a01b03811681146073575f80fd5b9392505050565b610321806100875f395ff3fe608060405234801561000f575f80fd5b506004361061004a575f3560e01c8063502f5bd01461004e578063a035b1fe14610067578063d92807a214610082578063dd1a5387146100ad575b5f80fd5b61006561005c3660046101d0565b50505050505050565b005b61006f5f5481565b6040519081526020015b60405180910390f35b600154610095906001600160a01b031681565b6040516001600160a01b039091168152602001610079565b6100656100bb3660046101d0565b6001546001600160a01b031633146100e6576040516352c8b88360e11b815260040160405180910390fd5b6100f36020880188610291565b81019061010091906102d4565b5f9081556040517f715f134613c3a182b8c06761ddc789820d2471806373c0386948d85956d8b6ed9190a150505050505050565b5f8083601f840112610144575f80fd5b50813567ffffffffffffffff81111561015b575f80fd5b602083019150836020828501011115610172575f80fd5b9250929050565b8060408101831015610189575f80fd5b92915050565b5f8083601f84011261019f575f80fd5b50813567ffffffffffffffff8111156101b6575f80fd5b6020830191508360208260051b8501011115610172575f80fd5b5f805f805f805f60c0888a0312156101e6575f80fd5b873567ffffffffffffffff808211156101fd575f80fd5b908901906080828c031215610210575f80fd5b9097506020890135908115158214610226575f80fd5b9096506040890135908082111561023b575f80fd5b6102478b838c01610134565b909750955085915061025c8b60608c01610179565b945060a08a0135915080821115610271575f80fd5b5061027e8a828b0161018f565b989b979a50959850939692959293505050565b5f808335601e198436030181126102a6575f80fd5b83018035915067ffffffffffffffff8211156102c0575f80fd5b602001915036819003821315610172575f80fd5b5f602082840312156102e4575f80fd5b503591905056fea26469706673582212206c929fc0d6fcc52e85da4f78d4e2f0aa69969c5ee06292c09f2f83a3b3e2ec3c64736f6c634300081900330000000000000000000000002e17acf054bdb44679a9bc98fff6280d458dafca",
        "nonce": "0x1ba",
        "chainId": "0x3419"
      },
      "additionalContracts": [],
      "isFixedGasLimit": false
    },
    {
      "hash": "0x521154e6dce761c6531c8b1aae133ca5a78d19b3846727f03aa0bab4c73b1017",
      "transactionType": "CALL",
      "contractName": null,
      "contractAddress": "0x2e17acf054bdb44679a9bc98fff6280d458dafca",
      "function": "setAvsLogic(address)",
      "arguments": [
        "0x83a891afD0d4c6E3A57a47724984Cef15f1205f7"
      ],
      "transaction": {
        "from": "0x7f50cf0163b3a518d01fe480a51e7658d1ebef87",
        "to": "0x2e17acf054bdb44679a9bc98fff6280d458dafca",
        "gas": "0x13803",
        "value": "0x0",
        "input": "0x008fd38600000000000000000000000083a891afd0d4c6e3a57a47724984cef15f1205f7",
        "nonce": "0x1bb",
        "chainId": "0x3419"
      },
      "additionalContracts": [],
      "isFixedGasLimit": false
    }
  ],
  "receipts": [
    {
      "status": "0x1",
      "cumulativeGasUsed": "0x3d428",
      "logs": [],
      "logsBloom": "0x00000000000000000000000000000000000000000000000000000000000000000000000000000000000000000000000000000000000000000000000000000000000000000000000000000000000000000000000000000000000000000000000000000000000000000000000000000000000000000000000000000000000000000000000000000000000000000000000000000000000000000000000000000000000000000000000000000000000000000000000000000000000000000000000000000000000000000000000000000000000000000000000000000000000000000000000000000000000000000000000000000000000000000000000000000000",
      "type": "0x2",
      "transactionHash": "0x2735e1c72d6e26be518ac9b949694c3b723179416ad062139c4641e9cfbf0f1b",
      "transactionIndex": "0x0",
      "blockHash": "0x85c72ccc8fa89070285a8f5ad6e906500893784958e2a357c8c8f407dbb0ac84",
      "blockNumber": "0x1126bd",
      "gasUsed": "0x3d428",
      "effectiveGasPrice": "0x1176592e001",
      "from": "0x7f50cf0163b3a518d01fe480a51e7658d1ebef87",
      "to": null,
      "contractAddress": "0x83a891afd0d4c6e3a57a47724984cef15f1205f7"
    },
    {
      "status": "0x1",
      "cumulativeGasUsed": "0xe1e5",
      "logs": [
        {
          "address": "0x2e17acf054bdb44679a9bc98fff6280d458dafca",
          "topics": [
            "0xdf0d3b0bf99a87fc195d045bc7ec61d3e2619e6a49dd3f5cb69102b8c9702034"
          ],
          "data": "0x00000000000000000000000083a891afd0d4c6e3a57a47724984cef15f1205f7",
          "blockHash": "0xf1c122a47de93a9cb6cf15c3f75572d16a16f89bedf7e352606dc52e6f7ce748",
          "blockNumber": "0x1126be",
          "transactionHash": "0x521154e6dce761c6531c8b1aae133ca5a78d19b3846727f03aa0bab4c73b1017",
          "transactionIndex": "0x0",
          "logIndex": "0x0",
          "removed": false
        }
      ],
      "logsBloom": "0x04000000000000000000000000000000000000000000000000000000000000000000000000000000000000000000000000000000000000000000000000000000000000000800000000000000000000000000800000000000000000000000000000000000000000000000000000000000000000000000000000000000000000000000000000000000000000000010000000000000000000000000000000000000000000000000000000000000000000000000000000000000000000000000000000000000000000000000000000000000000000000000000000000000000000000000000040000000000000000000000000000000000000000000000000100000",
      "type": "0x2",
      "transactionHash": "0x521154e6dce761c6531c8b1aae133ca5a78d19b3846727f03aa0bab4c73b1017",
      "transactionIndex": "0x0",
      "blockHash": "0xf1c122a47de93a9cb6cf15c3f75572d16a16f89bedf7e352606dc52e6f7ce748",
      "blockNumber": "0x1126be",
      "gasUsed": "0xe1e5",
      "effectiveGasPrice": "0x1176592e001",
      "from": "0x7f50cf0163b3a518d01fe480a51e7658d1ebef87",
      "to": "0x2e17acf054bdb44679a9bc98fff6280d458dafca",
      "contractAddress": null
    }
  ],
  "libraries": [],
  "pending": [],
  "returns": {},
  "timestamp": 1737020863,
  "chain": 13337,
  "commit": "8f8bc56"
}