{
  "transactions": [
    {
      "hash": "0x1260a8cf800342c09352813b955b2348dc07154f83eba5bc8db5990fb01fa5ac",
      "transactionType": "CALL",
      "contractName": null,
      "contractAddress": "0x2e17acf054bdb44679a9bc98fff6280d458dafca",
      "function": "setAvsLogic(address)",
      "arguments": [
        "0x83a891afD0d4c6E3A57a47724984Cef15f1205f7"
      ],
      "transaction": {
        "from": "0x7f50cf0163b3a518d01fe480a51e7658d1ebef87",
        "to": "0x2e17acf054bdb44679a9bc98fff6280d458dafca",
        "gas": "0xd8af",
        "value": "0x0",
        "input": "0x008fd38600000000000000000000000083a891afd0d4c6e3a57a47724984cef15f1205f7",
        "nonce": "0x1be",
        "chainId": "0x3419"
      },
      "additionalContracts": [],
      "isFixedGasLimit": false
    }
  ],
  "receipts": [
    {
      "status": "0x1",
      "cumulativeGasUsed": "0x9429",
      "logs": [
        {
          "address": "0x2e17acf054bdb44679a9bc98fff6280d458dafca",
          "topics": [
            "0xdf0d3b0bf99a87fc195d045bc7ec61d3e2619e6a49dd3f5cb69102b8c9702034"
          ],
          "data": "0x00000000000000000000000083a891afd0d4c6e3a57a47724984cef15f1205f7",
          "blockHash": "0xc10dbe1dba04c331d037acfbcc6d95ae20129e1c21e7257bcca99629da95cc7a",
          "blockNumber": "0x112744",
          "transactionHash": "0x1260a8cf800342c09352813b955b2348dc07154f83eba5bc8db5990fb01fa5ac",
          "transactionIndex": "0x0",
          "logIndex": "0x0",
          "removed": false
        }
      ],
      "logsBloom": "0x04000000000000000000000000000000000000000000000000000000000000000000000000000000000000000000000000000000000000000000000000000000000000000800000000000000000000000000800000000000000000000000000000000000000000000000000000000000000000000000000000000000000000000000000000000000000000000010000000000000000000000000000000000000000000000000000000000000000000000000000000000000000000000000000000000000000000000000000000000000000000000000000000000000000000000000000040000000000000000000000000000000000000000000000000100000",
      "type": "0x2",
      "transactionHash": "0x1260a8cf800342c09352813b955b2348dc07154f83eba5bc8db5990fb01fa5ac",
      "transactionIndex": "0x0",
      "blockHash": "0xc10dbe1dba04c331d037acfbcc6d95ae20129e1c21e7257bcca99629da95cc7a",
      "blockNumber": "0x112744",
      "gasUsed": "0x9429",
      "effectiveGasPrice": "0xe8d4a51001",
      "from": "0x7f50cf0163b3a518d01fe480a51e7658d1ebef87",
      "to": "0x2e17acf054bdb44679a9bc98fff6280d458dafca",
      "contractAddress": null
    }
  ],
  "libraries": [],
  "pending": [],
  "returns": {},
  "timestamp": 1737028272,
  "chain": 13337,
  "commit": "8f8bc56"
}